:020000040001F9
:10C00000003C002015C101002FC1010031C1010019
:10C010000000000000000000000000000000000020
:10C0200000000000000000000000000033C101001B
:10C03000000000000000000035C1010037C1010010
:10C0400039C1010039C1010095C6010039C10100A3
:10C0500039C101000000000065C2010039C10100C2
:10C0600039C1010039C1010039C1010039C10100E4
:10C0700039C1010039C1010039C1010039C10100D4
:10C0800039C10100B1C3010039C1010039C101004A
:10C0900015C6010039C101001DC6010039C10100EA
:10C0A00039C1010039C1010000000000000000009A
:10C0B0000000000000000000000000000000000080
:10C0C0000348854600F0BCF80048004761E60100DF
:10C0D000003C0020401E00BF00BF00BF00BF00BFEB
:10C0E00000BF00BF00BF00BF00BF00BF00BFF1D155
:10C0F00070470000401E00BF00BF00BF00BF00BF70
:10C1000000BF00BF00BF00BF00BF00BF00BFF1D134
:10C11000704700000321094802680A43026008488A
:10C1200002680A4302600748804707480047FEE765
:10C13000FEE7FEE7FEE7FEE7FEE70000240500401D
:10C140005405004041C60100C1C0010030B50B4696
:10C15000014600202022012409E00D46D5409D42E1
:10C1600005D31D469540491B254695404019154667
:10C17000521E002DF1DC30BD70B50024254600288C
:10C1800001DA01244042002901DA01254942FFF782
:10C19000DDFFAC4200D04042002C00D0494270BDCF
:10C1A00010B5431A934209D28318881803E0401E41
:10C1B00001785B1E1970521EF9D210BD03460B4365
:10C1C0009B0703D009E008C9121F08C0042AFAD24D
:10C1D00003E00B780370401C491C521EF9D210BDBD
:10C1E000D2B201E00270401C491EFBD2704700220F
:10C1F000F6E710B513460A4604461946FFF7F0FF66
:10C20000204610BD421C0178401C0029FBD1801A39
:10C21000704730B504460020034600E05B1C9342A3
:10C2200003D2E05CCD5C401BF8D030BD03460A78F9
:10C230000270401C491C002AF9D1184670470000C2
:10C24000064C0125064E05E0E36807CC2B430C3C69
:10C2500098471034B442F7D3FFF736FFB0FB010024
:10C26000D0FB0100F8B50024FF2501350126274643
:10C270000094284602F028FC002808D03448406882
:10C28000304204D0334800212818344301602D1D6A
:10C2900076007F1CADB2042FEBD3FF207D3002F07F
:10C2A00013FC002807D02C480021016040070443FC
:10C2B0002A48006900902A4F200712D00126002545
:10C2C00026420AD02748AA00111808690969C00443
:10C2D000C00E8903BA58890F904776006D1C042D53
:10C2E000EED3002C30DA00241D4E002130194030EE
:10C2F0004156491C25D00778BD06AD0E284601F0F1
:10C30000A3FA80003658002E1BD0BF090121A94096
:10C31000154AA80080180068009A8003800F114217
:10C3200002D0022802D00CE003280AD1032F05D145
:10C3300002280AD00221284602F0B6FB39462846D8
:10C34000B047641C042CCFD3F8BD0321F3E70000F1
:10C3500000630040006000407C6100400005005028
:10C360001C2E002000650040000700508307FF22BC
:10C37000DB0E9A408907090E994000280BDA000766
:10C38000000F0838830808489B001818C3699343B6
:10C390000B43C3617047830804489B001B1818684F
:10C3A000904308431860704700ED00E000E400E0AF
:10C3B00010B506490020086048608860C8600349DD
:10C3C00040390860486003F0CFF810BD40110140CB
:10C3D00070B5074B0646187814460D46002801D163
:10C3E00000F0DAF922462946304600F003F870BD25
:10C3F0008433002070B50E46182148431349144673
:10C400004518E86A1835002804D001280FD0022802
:10C4100005D113E0284600F0F5F9A04201D200242E
:10C4200011E022463146284600F017FB0BE0284673
:10C4300000F0E8F9A042F4D20446F2E7314628467B
:10C4400000F0DBFA0446204670BD00008433002073
:10C4500070B505460C460846FFF7D4FE0246214655
:10C460002846FFF7B5FF70BD0FB408B504A90091C9
:10C470006A46039900F004F801B008BC04B01847FC
:10C48000F7B598B007A802904020002504950390C6
:10C4900018980C46059506902178641C002977D0E1
:10C4A000252907D002A800F089FA05980028F3DAB8
:10C4B0001BB0F0BD01220021022713460826207878
:10C4C00023281BD02B2816D02D2802D0302806D1A7
:10C4D00001E0194300E03943641C002AEFD1002237
:10C4E00020780346303B0A2B0AD20A235A431218FB
:10C4F000303A641CF4E704200143EDE73143EBE7F5
:10C500000023C7B22E2F0AD1641C20780746303F83
:10C510000A2F04D20A277B431B18303BF4E76C2810
:10C520000DD068280BD0702852D00BDC25285AD0AB
:10C5300058282ED063280CD0642858D110E02078D9
:10C54000641CECE7732832D0752817D078284ED1B8
:10C550001FE01A981A9A0068011D1160017843E0E3
:10C560001A981A9F0068061D3E60006801910092AB
:10C5700001460A2202A800F050F938E01A981A9FE2
:10C580000068061D3E600068009201910A2209E0E1
:10C590002FE01A981A9F0068061D3E6000680092FE
:10C5A00001911022014602A800F09CF91FE01A98A0
:10C5B0001A9A0068011D116006683178761C0029FE
:10C5C00015D002A800F0FAF905980028F5DA0EE077
:10C5D0001A981A9A00680823011D11600168102238
:10C5E00000960195DFE7252102A800F0E7F9641C19
:10C5F0005BE70598002800DC5AE70498002804D07F
:10C60000024607A91898FFF7E3FE04990598401819
:10C6100005904DE710B502F03DFF10BD10B507487D
:10C620004068002807D08047002803D00022114628
:10C6300000F0EEFB10BD01F089FE10BDB028002017
:10C6400010B501F0C3FE002805D00E490C48486023
:10C65000C8130D4988610D48018CC9B201290ED15A
:10C66000818C09070BD1018D0906090F042906D118
:10C67000808D0006000F02D105490120886010BDA1
:10C68000DFFF07C000050040006C0040C00F00F055
:10C6900000060040F0B53C4D012185B04902284616
:10C6A00002F021FA01270026384C002823D0FF2170
:10C6B0002531284602F012FA00281CD0FF20253030
:10C6C0002E508120324980008860607D002800D192
:10C6D0006F600221684601702E4908680860039067
:10C6E000E17C68460172E0680190E67406CC684619
:10C6F000083C90471DE00421284602F0F4F9002888
:10C7000017D0FF210931284602F0E8F9002810D09F
:10C7100002F0F0FCE07C217D88420AD1607D002897
:10C7200000D16F6081201A4980008860207D02F06E
:10C73000F7FCFF211D31284602F0D0F900280DD06A
:10C74000A07C218A884202D903F098F806E0FF21F4
:10C750001D316E50002801D003F0A6F8FF214531AD
:10C76000284602F0BBF900280CD0FF2045302E509F
:10C77000607D002800D02F60E07C002802D0207D62
:10C7800002F0CEFC05B0F0BD00200040642E002079
:10C79000002300408024004010B5124C022020618C
:10C7A000606111A0A0611348E06101208002206255
:10C7B0000020A06260620CA1A1642146E0621039F1
:10C7C000E16410212165A0656065E0650AA1E01DB6
:10C7D000FFF72CFD09A12046FFF728FD2020A071BE
:10C7E00010BD0000843300205465726D696E616C69
:10C7F00000000000742F0020525454005345474756
:10C80000455200000269C1688A4203D88068401A14
:10C81000801800E0501A401E7047FFB583B00E46E6
:10C8200070420D9F0C9C0090002900DB08460125FA
:10C8300002E0FFF7A1FC6D1C05998842F9DA069821
:10C84000A84200D90546002C04D0002E01DB780751
:10C8500000D5641EB80702D50698002810D0F80746
:10C860000ED1002C0CD0A5420AD22021641E0398C0
:10C8700000F0A4F80398C0680028F2DA07B0F0BD11
:10C880000398C0680028F9DB002E02DA2D21009EF3
:10C8900002E0780707D52B21039800F08FF8039862
:10C8A000C0680028EADBB807800F022810D106987C
:10C8B00000280DD1002C0BD0A54209D23021641ED6
:10C8C000039800F07BF80398C0680028F2DAD5E7F7
:10C8D000019700943146069B059A039800F002F8F0
:10C8E000CCE70000FFB581B001261F4634460A9D03
:10C8F000029802E0FFF72AFC641C03998842F9D2EF
:10C90000A74200D93C460B98C00718D1002D16D07D
:10C910000B98800701D5002F02D0202000900CE05A
:10C920003020FBE76D1E0099019800F047F8019850
:10C93000C06800283DDB002D01D0AC42F2D3019845
:10C94000C068002835DB012F01D97F1E06E0314683
:10C950000298FFF7FBFB0399884202D303984643F2
:10C96000F1E7154F31460298FFF7F0FB0146029AB6
:10C970007143511A0291395C019800F01FF8019837
:10C98000C068002805DB30460399FFF7DFFB06008F
:10C99000E8D10B98C0070CD0002D0AD0AC4208D2C9
:10C9A00020216D1E019800F009F80198C068002848
:10C9B000F2DA05B0F0BD0000A0FB010010B504469E
:10C9C00080686368421C934205D323681954A260AF
:10C9D000E068401CE060A2686068824209D121687A
:10C9E0002069FFF7F5FCA168884203D00020C0430E
:10C9F000E06010BD0020A06010BDF7B5064682B013
:10CA000000200090F46817463069A04201D9051B48
:10CA100002E0B168201A0D1AB0686D1E001BA84212
:10CA200000D80546BD4200D33D4670682A4600192D
:10CA30000399FFF7B5FB00987F1B401900900398FE
:10CA4000641940190390B068A04200D10024F4603A
:10CA5000002FD9D1009805B0F0BDF7B5C6681746CC
:10CA600004468068851B6068BD4206D9801901991B
:10CA7000FFF796FBF019E060FEBD2A468019019988
:10CA8000FFF78EFB01987E1B411932466068FFF765
:10CA900087FBE660FEBD30B47446641E2578641CD6
:10CAA000AB4200D21D46635D5B00E31830BC184703
:10CAB00002E008C8121F08C1002AFAD17047704767
:10CAC000002001E001C1121F002AFBD17047F7B519
:10CAD00084B00025168807461580406B1446002850
:10CAE00013D003780598032E51D3022101702188B9
:10CAF0001122491C89B2218042542188491C89B2E3
:10CB0000218043542088401C2080386B00281DD091
:10CB100005462088059902461232B24237D81122C2
:10CB20000A5420881022401C80B220800A54208899
:10CB3000401C20800F202A5C2388401ECA54228873
:10CB400040B2521C22800028F5DA002538462030F9
:10CB50000290807B002806D033462246059901F0DA
:10CB600081FC050014D10298407B002806D0324693
:10CB70002146059800F00AFC050009D1B878002884
:10CB800023D0059886462088001DB04202D90C208B
:10CB900007B0F0BD684679DF0028F9D1218803206D
:10CBA0007246505420881921401C80B220801154B4
:10CBB00020887146401C80B2208041186846008859
:10CBC00002F082FE218840182080F878002817D0D3
:10CBD000218803230A46FB56C91C0598B142D6D8C2
:10CBE0000221815421880122491C89B221804254AA
:10CBF0002188491C89B2218043542088401C208010
:10CC00007868002817D021880023C3560A46C91C1B
:10CC10000598B142BBD80221815421880A22491CBF
:10CC200089B2218042542188491C89B22180435411
:10CC30002088401C2080388900280AD0009438467B
:10CC40000196062202210830059B02F08AFE0500AB
:10CC50009ED1388A00280AD00094384601960722CF
:10CC600003211030059B02F07CFE050090D1388B2B
:10CC700000280AD000943846019615221421183055
:10CC8000059B02F06EFE050082D1386A002806D0AE
:10CC900033462246059900F037FF0500D8D1786A5F
:10CCA000002806D033462246059901F053FD0500C1
:10CCB000CED10298007B002807D033462246384662
:10CCC000059902F061FA0500C2D13878002807D032
:10CCD000334622463846059901F070FD0500B7D16C
:10CCE000284655E770B51A4C8AB018482080194874
:10CCF000A06002252046A58038210C30FFF777FA86
:10CD000020460C300570012585700621C170002673
:10CD10000682846220300573242101A8FFF767FA98
:10CD2000684605740C4805901E20069020460B4B63
:10CD300001AA002100960C3000F09EF9002803D0D3
:10CD40000022114600F064F80AB070BD187B0000A4
:10CD5000182B00200128002010270000F7EA01000E
:10CD6000044842680121C9050B46934383600A4089
:10CD7000C26070470005005070B50024064D06E003
:10CD80006968E000085C012101F09EFD641C2878C0
:10CD90008442F5D3002070BD7C280020F8B51546EC
:10CDA0000C460646052A01D20720F8BD01F062FEB6
:10CDB000002803D101F034FE0028F6D110490020EC
:10CDC0004E600C70C8608D6008610E4D0DE0E00093
:10CDD00069688019009181786A46517000780A4A22
:10CDE000694601F0C1FD0028DFD12046641EE4B28F
:10CDF0000028ECD1054A0021024800F043F8F8BDB4
:10CE00007C28002098FB010085E2010031DC010054
:10CE1000BFF34F8F04490348C860BFF34F8F00BF73
:10CE2000FDE700000400FA0500ED00E0014B1B687F
:10CE300018470000F82D002038B50C46A2680C23D6
:10CE40005A43064B09789D58054A126A00920246D9
:10CE5000204608302369A84738BD0000482F00202D
:10CE60005828002010B5064914230A785A4351184F
:10CE7000091DFFF7E1FF042002F0CEF910BD00000C
:10CE80007C2E0020094B9B68002B07D0002A07D07E
:10CE9000002805D00068037C002B03D008207047D1
:10CEA000072070474174426100207047902800209D
:10CEB000FFB59007002581B014460E46002832D1F8
:10CEC0001B4F002C31D002F0F3F804987861032056
:10CED000387033461821224600204B43BC6018347A
:10CEE000C10089180D704D708E704C601C19401C6B
:10CEF0000328F5DBFD607D7001240E48BD7024051C
:10CF0000046003211420FFF731FA0B4804600B4C36
:10CF10000198A06003211120FFF728FA60683861AA
:10CF2000002005B0F0BD0720FBE7BD60FBE7000077
:10CF30009028002080E200E000E100E000150140C0
:10CF4000FEB50D461B4917468968044600292AD0BC
:10CF5000002C28D0052D01D20720FEBD60690028D5
:10CF600021D0607C012820D0002602F0BDFCC0004A
:10CF70001049019089684018694602F0DFFC0028DA
:10CF800015D0012101700C49446049680830E2C0A5
:10CF9000084901988968411868460078487002F08D
:10CFA000BBFA0020FEBD0820FEBD2E46DDE70420B2
:10CFB000FEBD00009028002000150140F8B5134D7B
:10CFC0000446A96800291CD0002C1AD060690028EA
:10CFD00017D00026267402F087FCC700A8686946AF
:10CFE000381802F0ABFC00280DD00221017044601B
:10CFF000A868391868460078487002F08DFA304603
:10D00000F8BD0820F8BD0420F8BD000090280020DD
:10D01000F0B50C4693B01F216A4611800726002701
:10D020009180002809D0C17849070DD502A9FFF7E2
:10D030004EFD002809D102AD01E000251780002C2B
:10D040000ED0E078002802D0304613B0F0BD01AA1F
:10D050000AA92046FFF73BFD0028F6D10AAA02E004
:10D0600068460022878068468088C3B26846008888
:10D07000C1B2284672DFE8E770B50D46049916463E
:10D08000040042D0002E40D0424800224271C360CA
:10D090000161242231464048FFF782F800F07EF813
:10D0A0003D49343108461038016020318160382113
:10D0B0005C38FFF79CF83848217838380170A1783F
:10D0C0008170E178C1706178417062692169426163
:10D0D0000161E268A168C26081600146E369A269FA
:10D0E000CB618A61616A002919D00146AC310246E0
:10D0F000B83241628A60636A1B880B80616A436A46
:10D10000898899800021436A06E00E2070BD666A16
:10D11000B668765C5654491C9E888E42F7D8A16A40
:10D1200000291CD01C4AAC3211460C398A6081623D
:10D13000A36A9B888B80A16A836A09881980002171
:10D14000836A04E0A66AB668765C5654491C9E88D9
:10D150008E42F7D82C210A5D0F4918390A73216ACB
:10D16000002909D00B4914310162226A52884A8091
:10D17000216A026A098811806168002904D0054982
:10D18000891D416061684160034829463838FFF7CE
:10D190003FFF70BD20280020002C002010B5072183
:10D1A0000148FFF724F810BD38280020F0B5754C71
:10D1B00087B06071002606A8069601F003FD0127DE
:10D1C000082806D000286FD10698002802D02770C2
:10D1D000D4E00696FFF7E2FF6B4D6878002802D096
:10D1E0006079012805D0A87800280AD06079022843
:10D1F00007D1E168002903D0E7700820884700E0E4
:10D20000E6706079012808D16878002809D05D4867
:10D21000193001F093FC002803D06079022802D075
:10D220000CE002206071A878002805D0554819301C
:10D2300001F084FC002801D103206071287B0028C4
:10D2400004D16079032801D104206071287E002870
:10D2500004D16079042801D166712671E168002942
:10D260000AD06079032801D0042805D12878002845
:10D2700002D06078002818D0A67018216846FEF702
:10D28000B6FF68460670019606720396607901281B
:10D290000FD0022816D03C4E243637465C3F032878
:10D2A0001CD004285ED13BE069E0A77007208847C6
:10D2B000E3E73448183001906846077046820682DA
:10D2C000277152E02F48183001906846077029896D
:10D2D0004182A98801820220207146E0A88A69461D
:10D2E0004882288A08822848243002F0FDFB002862
:10D2F00005D02878002802D06078002801D00320CB
:10D300002FE002206946087204200396F8701E4838
:10D3100000213838FFF77CFE002830D1052020E0BE
:10D32000A88B69460882288C48821748243002F06E
:10D33000DBFB002805D02878002802D06078002880
:10D3400001D004200DE002206946087204200396F3
:10D35000F8700D4800213838FFF75AFE00280ED12A
:10D36000062020716079002803D0684673DF00280A
:10D3700005D1E168002901D020798847002007B055
:10D38000F0BD000020280020002C00207CB50546C0
:10D3900008880C460930904201D90C207CBD6846B3
:10D3A00071DF0028FAD121880820685420881B21C9
:10D3B000401C80B220802954208800A9401C80B2E3
:10D3C0002080401906220131FEF7EAFE20886946D6
:10D3D000801D80B220800978002900D001212954C5
:10D3E0002088401C208000207CBD10B5032000F068
:10D3F000D5F9002801D0062800D1002010BD00007A
:10D40000F8B507460024234802E0641C042C1AD215
:10D41000A2008258BA42F8D1042C14D21D481E4EE4
:10D420000C38002929D001290ED002290BD1600027
:10D43000201880194578002D05D018480169002969
:10D4400001D028468847F8BD61006118755C8E19C7
:10D45000717800290CD011490A224968806851432B
:10D460000E4A521CFFF76CFD002801D10B48477093
:10D470000A48B17814300155DDE78068FFF79EFD5A
:10D4800006486100611814308919005D8D78A84242
:10D49000D1D0F8BD0CFB01009C2B002008280020F7
:10D4A00070B50023042811D2440004190D4D012A3F
:10D4B00002D101290DD0002246008019094E8019A1
:10D4C00000290CD0012906D0022906D007231846CE
:10D4D00070BD0D30C2B22A55F9E74270F7E782708D
:10D4E000F5E700009C2B002010B5054A0146127A92
:10D4F0000020D20702D0084600F054F810BD00000A
:10D500000828002070B50E46204905464E608D6003
:10D5100000200A61A9071ED50024012211462046D9
:10D52000FFF7BEFF641C042C02D20028F5D012E0E5
:10D53000002810D1720804211548FFF72FFC00289D
:10D5400009D1FFF719FC002805D11148114A002123
:10D550001438FFF797FCE90706D00F220E49520551
:10D560008A600023CB608A6100280DD108480B4AED
:10D5700000211C38FFF786FC002805D10448084A22
:10D5800001211838FFF77EFC70BD0000082800203C
:10D590001CFB0100D9D7010000050050B9E40100CF
:10D5A00061CD0100FEB57A4D0722EB6892059A43E2
:10D5B00002936B6800939C0006461B190020012112
:10D5C000019349050746734C3300FFF764FA180DC1
:10D5D0001515374755677C887F8891DE9E9E9E9EF5
:10D5E0009EC8CED1D8DEDE140F21029A49059143A0
:10D5F000A160E7602F70FEBDA260E76060680F2247
:10D6000052055040800209D5A160E760022E02D188
:10D61000E120C0000AE07D20400107E0E160A76052
:10D62000022E01D1C82001E0FF2091302E7064212C
:10D63000FEF78CFD0099414300223FE0A260E760C5
:10D6400060680F2252055040800204D5A160E76057
:10D6500019204001EAE7E160A760E3E7A260E76024
:10D6600060680F2252055040800202D5A160E76039
:10D67000D1E7E160A760D7E7A260E76060680F22AA
:10D6800052055040800202D5A160E76001E0E160F0
:10D69000A7602E700098410000220FE0A260E760B2
:10D6A00060680F2252055040800202D5A160E760F9
:10D6B00001E0E160A7602E70009900223648006802
:10D6C000FFF73EFCFEBDA260E7601BE06168012041
:10D6D000800502468A43A2600140E16010E0606874
:10D6E000012189050A468243A2600840E060E3E721
:10D6F0006068012189050A468243A2600840E06013
:10D700000199C9E7E160A7602DE023484068FFF771
:10D7100055FC11218A1B01D0002807D00F22E9688F
:10D7200052051140A160E760EF60FEBD0121C9050F
:10D73000E960012A0CD91046C82148436421FEF74C
:10D7400005FD69680022414313484068FFF7F8FB74
:10D750000F22E96852051140E160A760FEBD0F216C
:10D760004905A160E7602E70FEBD07229205AAE779
:10D770000D214905A160E76001218905C2E7032168
:10D78000C905A160E7608910BCE70F214905B9E729
:10D79000082800200005005000FB0100F0B5002122
:10D7A0000B4C0C4D03273F048A00A25892005619D7
:10D7B000326801238B40034000D00323BA431B048B
:10D7C00013433360491C0429EED30020F0BD000050
:10D7D0000CFB01000007005010B500780221FFF794
:10D7E0000FFE10BD0022D243830004490428CA5012
:10D7F00002D3081820300277704700001C2E00204A
:10D80000F0B50025ED43002A02D00023042601E0F4
:10D81000042308260B4C04E09F00E7597F1C04D02A
:10D820005B1CB342F8D32846F0BD26185DB2203603
:10D8300035709E00A151002AF5D1E11820310877FA
:10D84000F1E700001C2E002002490918202008568C
:10D85000704700001C2E0020F8B53E4814220178C5
:10D8600051430C18E0680C2148433A492769CC31F0
:10D870004018058941890091241D466801F044FA49
:10D8800001463846FEF762FC002932D0002000999C
:10D89000A2884D436188AE198918CD1900222E49FE
:10D8A00000280A6109D001F02FFA6188884222D04D
:10D8B000B54202D1A08800281DD0A06802281AD045
:10D8C00001F022FAA188CA1901461046FEF73EFC73
:10D8D000214C8808E06001F017FA01462846FEF75F
:10D8E00035FC002911D00020B5422FD000280ED0E1
:10D8F0002CE00120CBE701F007FA01463846FEF79D
:10D9000025FC15494861032021E00120ECE7ADB278
:10D91000B7B201F0F9F901463846FEF717FC0646A2
:10D9200001F0F2F901462846FEF710FC864201D1CB
:10D93000781B09E001F0E8F9064601F0E5F9014637
:10D940002846FEF703FC701A80082061022001F0CF
:10D9500063FCF8BD7C2E00205828002010B5074835
:10D9600014220178514308180079042802D000F0ED
:10D9700059F810BD012001F04FFC10BD7C2E002095
:10D9800010B50B481422017851430818094AC18880
:10D9900011620079012806D0032801D0042801D1A2
:10D9A000FFF75AFF10BD012001F036FC10BD00004A
:10D9B0007C2E00205828002014225043054A0021C4
:10D9C00080180171C18001220161C2604161018141
:10D9D000704700007C2E0020F8B5104C069E65783C
:10D9E0000A2D19D027787D190A2D00D30A3D142756
:10D9F0007D432D1928716A6103C92961E860EB80B4
:10DA00002E816078401C607005480078002801D1A4
:10DA1000FFF7B6FF0020F8BD0420F8BD7C2E0020E3
:10DA20005828002010B50D4C1421207848430119C6
:10DA30000020091DFFF700FA2078FFF7BDFF60788E
:10DA4000401E60702078401CC0B220700A2801D1AE
:10DA500000202070002001F0DFFB10BD7C2E002094
:10DA6000F8B52348C16800293ED00E6821494C68AA
:10DA70000769C078E11B0D022D0AED1C002814D1A6
:10DA800001201D4A000450601B4A403A50601B4967
:10DA9000400008601A4908601A49012008602F20D8
:10DAA000FEF718FB12490120C870B54200D2354676
:10DAB000E81900020F4B000A403318600D4A516804
:10DAC000001B091B0902090A0002000AC91C814245
:10DAD00009D9506818602F20FEF7FCFA0120074989
:10DAE000400480390860F8BD01F0E2FAF8BD00009A
:10DAF00090280020001501404013014080E200E022
:10DB000000E100E000100140F8B506461088144618
:10DB10008446801D0D46984201D90C20F8BD3288FC
:10DB20000720062AFAD31927FF01184BBA4201D958
:10DB30009A42F3D171880629F0D3B94201D99942AA
:10DB4000ECD19A4203D0994201D08A42E6D805210D
:10DB50006046295420881221401C80B2208029541C
:10DB60002088401C80B220804119308801F0ACFE32
:10DB70002188401880B220804119708801F0A4FEED
:10DB80002188401820800020F8BD0000FFFF000021
:10DB90000C214843064910B5012240188272911E9B
:10DBA0000181FF21C1720721FEF721FB10BD00009A
:10DBB000EC2D002010B5134C207900071FD46069AC
:10DBC000401C6061E068002801D0042004E000F0FF
:10DBD00021FC002803D0022001F044FC10BD206984
:10DBE000002809D06068C10701D00320F4E70121B3
:10DBF000084360600020EFE7FFF7B0FE10BD01F0C2
:10DC000025FC10BD5828002010B5084841680A07B7
:10DC100008D48A0702D5012211434160022001F095
:10DC200021FC10BD01F012FC10BD0000582800209E
:10DC3000F8B500260124154D23E06968F000471867
:10DC4000387821462A698140114218D08A432A61D6
:10DC500000F0DCFE3A782146EB689140194003461B
:10DC6000934099420BD17978012901D0012100E03C
:10DC700000217B684140002B01D010469847761C5C
:10DC8000F6B228788642D8D3F8BD00007C28002060
:10DC900010B5100003D000221146FFF7B9F800209C
:10DCA00010BD00001FB56946087301F033F8002865
:10DCB00003D000221146FFF7ABF803A800F03AF8B2
:10DCC000002803D000221146FFF7A2F801A8052181
:10DCD0000130FEF78CFA6946487901221043E121B0
:10DCE0000840DF210C3008406946487107208871E0
:10DCF0001020C871064800900A71064800F042F9E9
:10DD0000002803D000221146FFF782F81FBD000053
:10DD100091DC010000280020002806D0FF210170BE
:10DD200041708170C1700020704701487047000049
:10DD30000E800000F0B585B0040036D029480025DB
:10DD40000560457285722846FFF722FF2548242189
:10DD50003038FEF74CFA0026FF27304600F0FAFE76
:10DD600021488755761C072EF7D374216846818099
:10DD70000721C1801D481C4900900831684601F008
:10DD800043F800280FD1184E0120083E307020784B
:10DD900000280CD069468888C988484381B230463B
:10DDA000103000F04DFF05B0F0BD1148FBE7114FFA
:10DDB00000240D48A1B202AA083000F017FF002885
:10DDC00009D11C206043C01900231C2202A900F0C5
:10DDD000C7FF002801D03570E5E7641C072CE8D3A5
:10DDE000E1E70000F82D002048280020F9DD0100BF
:10DDF0000E800000E82C0020FFB55D488FB0006861
:10DE0000189F1E46002875D0742F73D86846FFF7F8
:10DE100083FF002803D000221146FEF7F9FF0024FB
:10DE2000684604700471254605970696A9B20DAAA6
:10DE3000504800F0DBFE002806D108220DA90F98FB
:10DE4000FEF7E7F9002817D06D1C072DEED36846C2
:10DE50008578FF2D4ED01098032810D046481C21FD
:10DE6000301AFEF773F9012707281ED204A8029082
:10DE7000119800280BD011E068468570E7E7742FF1
:10DE800003D04020694608716CE02020FAE738464C
:10DE90003849A84010394968084261D0284601F045
:10DEA00019FD2020694608714AE031481C214C3890
:10DEB000301AFEF74BF900281DD02D4824213038A8
:10DEC000301AFEF743F901002C482CD040216A4655
:10DED00011712B498E4245D0274AA9001C3A51584E
:10DEE000B1423DD104A90291C07A854228D1684649
:10DEF000447025E034E004A80290202168460171B6
:10DF000044701B480A940C300B90583807906846B0
:10DF100080781C21484318494018089007A80690AB
:10DF2000182005900CE0302269460A714C70CF70C1
:10DF3000807A800704D4114824212438FEF757F949
:10DF4000109869460228087910D0022108436946D2
:10DF5000087104A8029001A96846119AFEF766FFAD
:10DF600013B0F0BD694608790321EFE73843EFE7C6
:10DF7000F82D002050280020E82C0020EC2D002057
:10DF80003CFB010070B5064618480D460078002895
:10DF90000ED01749002E0ED0002D0CD02868002876
:10DFA00009D0144C2168002907D011480A3870BDE7
:10DFB0000F48801F70BD084670BD20600522691D96
:10DFC000201DFEF7EDF82879A072207A0221400882
:10DFD00040000843FB2210402072E07901231843DF
:10DFE00008431040E0710020307070BD40280020D0
:10DFF0000E800000F82D002010B50E4900234A784D
:10E000008C78A24212D0521CD2B24A70022A00D19D
:10E010004B704A78074B920018339A58026008698F
:10E0200010180002000A0861012010BD03600020E2
:10E0300010BD00009028002010B5002803D0112842
:10E0400002D0FEF70FFF10BD0248082241681143BD
:10E05000416010BD5828002010B528DFFFF7ECFF05
:10E0600010BD10B529DFFFF7E7FF10BD0EB5112079
:10E07000694608720E2213A102A87CDF002803D093
:10E0800000221146FEF7C4FE0320000278DF0028BC
:10E0900003D000221146FEF7BBFE00200090502264
:10E0A000694601900A80A0224A808880FF20913032
:10E0B000C88068467ADF002803D000221146FEF7A8
:10E0C000A7FE0EBD454D4F4E5F31323334353637E6
:10E0D000383900000020704700207047002070474A
:10E0E000F8B506464078242104464C4324490C22C6
:10E0F00050436118224A00254B6824328018AE46EE
:10E100002F469C46002B0CD0827A1346D20908D0A9
:10E110005A0606D40D461A4A614689B2175908357F
:10E120008E46174C008924343B4672462946A9DFA7
:10E130000B2819D0002800D01248012F13D1707875
:10E140000C214843001900890F4AA7DF00280AD094
:10E150000E49884212D0082810D0891C88420DD060
:10E1600011280BD00020F8BD70780C214843012302
:10E170000019008972462946A9DFE0E70148F8BD89
:10E18000C82D002041800000FFFF00000230000089
:10E1900070B50C46014660782422084D5043401962
:10E1A000382300F0DDFD002807D161782422514397
:10E1B00049194A68521C00D14A6070BDC82D002020
:10E1C000F3B589B00D461A206946888368780C211A
:10E1D00003274843224E3B468019008907AA694617
:10E1E000AADF002838D1687824214843741A00191E
:10E1F00069468A8B0830FEF70CF80028687807D04B
:10E20000242148430119496800290DD0154E0CE01E
:10E210000C2141438919897A89071DD42421484357
:10E220000019FDF7E4FF17E00F4E27506846828B78
:10E2300068782421484300194260687848430019EF
:10E2400069460830FDF7ACFF68782421484301197E
:10E25000382324220998B04700200BB0F0BD0000FD
:10E26000EC2D002055EF0100C5EE010010B5FFF7C1
:10E2700037FF10BD10B5FFF78BFF10BD10B5FFF7CE
:10E280009FFF10BDF8B50746104E0125BD40306810
:10E29000FEF794FE00280DD10D4C2069284207D1CD
:10E2A000384600F0B3FB0028E06804D0284303E0C0
:10E2B000A8432061F8BDA843E060206900222843FC
:10E2C0002061A1683068FEF73BFEF8BD98FB0100B5
:10E2D0007C28002070B51B4C207900072ED41A48EA
:10E2E0001422017851430D182E6900F00DFD0146EE
:10E2F000E8882A89761E80188019FDF727FF216992
:10E300000025002909D06169814206D1E560606875
:10E3100001210843606000200AE000F07BF800283B
:10E3200002D00220E56003E02069002803D003202A
:10E3300001F098F870BDFFF711FB70BD01F086F891
:10E3400070BD0000582800207C2E0020F8B51E4C1F
:10E350002078002837D02069002807D00026E06800
:10E36000002805D00025002E04D013E00126F6E792
:10E370000125F8E7684651DF052806D0002806D0B9
:10E3800000221146FEF744FD04E0012602E0216967
:10E3900000988847002D12D1608869460880A068DF
:10E3A00061DF052806D0002806D000221146FEF7BE
:10E3B0002FFD04E0012502E0E168A0688847002EF7
:10E3C000D8D0002DCFD0F8BDB02800201048018C47
:10E3D000C9B2012917D1818C090714D1018D090611
:10E3E0000A0F03D1828D1206120F0ED0090F0129D8
:10E3F00003D1828D1206120F07D0032903D1808D1D
:10E400000006000F01D00020704701207047000077
:10E41000C00F00F070B50E481422017851430C185B
:10E42000256900F071FC0146E08822896D1E801884
:10E430004019FDF78BFE07494A69824206D38242A2
:10E4400002D10869002801D0002070BD012070BDF4
:10E450007C2E002058280020800701D00020704723
:10E460000120704730B51588EC1C9C4201D90C2066
:10E4700030BD02244C5513881C255B1C9BB21380B5
:10E48000CD5413885B1C9BB21380012807D002284F
:10E4900007D0032807D0042807D0072030BD00206C
:10E4A00004E0012002E0CC5401E00320C8541088AD
:10E4B000401C1080002030BD10B50448017AC90707
:10E4C00002D00078FFF76EF810BD00000828002089
:10E4D000F8B52C49C8680A690C780F7989688646AE
:10E4E000944600913EE00099E20055182A7836E003
:10E4F000182353436968521CC918AB78D2B29342AF
:10E5000000D100220B78022B02D0032B27D123E06D
:10E510004E680346014603E0B14204D00B46C96988
:10E5200000291CD0F8E7002919D08B4208D1C06916
:10E53000002805D1144F0126BE600026B4460127ED
:10E540000E68C969D961002909D00B689B190B6055
:10E5500005E00174C06900E000210028F9D1697864
:10E560009142C5D12146641EE4B20029BBD10549C0
:10E5700062460A61C8600F71704501D00120F8BD84
:10E580000020F8BD9028002000100140F8B5044696
:10E5900031480026C168009107784EE02E48F90006
:10E5A00080680D1843E0002C02D02046E4691FE08B
:10E5B0002878182141436A68401CC0B2511828705D
:10E5C000AA78904200D12E700A784868012A30D18A
:10E5D000027C002A2DD18A684260CA6882600A697A
:10E5E000C260496981611C490979002900D04660EF
:10E5F000194943680A699C46991A0902174B090A86
:10E60000994202D28268891807E06146511A0902CC
:10E610008268090A8A4202D9511A016000E0066044
:10E620004660012186600174C66100F07DFF002C08
:10E63000B9D1287869788842BAD138467F1EFFB2AE
:10E640000028ABD10448C1680098814201D0012064
:10E65000F8BD0020F8BD000090280020FFFF7F00DB
:10E6600033A18AB003C934A20691059007CA02AB50
:10E6700007C3002405A92046FDF7EAFE3148026AD7
:10E68000406A31498A70120ACA70120A0A71120A63
:10E690004A718871000AC871000A0872000A48723B
:10E6A00000F0A4FF284D00226D1E01206968FEF7CE
:10E6B00029FF002803D000221146FEF7A9FB002302
:10E6C00048222249082000F0D1FD002803D0002272
:10E6D0001146FEF79DFB00200090694601900870EE
:10E6E000684660DF002803D000221146FEF790FB49
:10E6F0002046FFF7D7FAFFF7B9FCFEF7F3FA144804
:10E70000002269684068FEF71BFC002803D0002245
:10E710001146FEF77DFB02A90020FDF799FE48DFB8
:10E720000028FCD000221146FEF772FBF7E700003C
:10E73000496E69740A0000005761726D7570202E71
:10E740002E2E0A0040000010012800200829002079
:10E75000F8FA010070B5144682880E4605462088F6
:10E76000111D4118921C994201D8FE2A01D90C2092
:10E7700070BD521C32542088FF21401C80B2208082
:10E7800031542088401C80B220808119288801F0F3
:10E790009BF82188401880B22080AA88002A09D0DE
:10E7A000A968002908D08019FDF7FAFC2088A988FB
:10E7B00040182080002070BD072070BDF8B50F46BE
:10E7C000017814460546012902D16878002806D050
:10E7D0002088821C9A422DD8012902D006E0072009
:10E7E000F8BD69784118891C994223D8181A801EEF
:10E7F00086B2684606802188B81C081869467DDF05
:10E800000028EDD12878022805D169460988B1424F
:10E8100001D809210AE00821012805D16878B04211
:10E8200002D86A46108001E0684606806846008883
:10E83000FE2801D90C20F8BD2288401CB85420883D
:10E84000401C80B22080395420886946401C2080BA
:10E850000988401820800020F8BD00207047002063
:10E8600070470020704700008207D30EFF229A40B5
:10E870008907090E10B5994000280BDA03071B0F12
:10E88000083B9C080C4BA400E318DC6994430C4340
:10E89000DC6107E08408094BA400E4182368934373
:10E8A0000B432360C106C90E01208840044908605B
:10E8B0000449086010BD000000ED00E000E400E045
:10E8C00080E200E000E100E0F3B581B00F4601987E
:10E8D00000F060F9012400281E4E019817D0FEF7C1
:10E8E000B3FF80192030007F8009032802D001285F
:10E8F00006D007E01848006901998C40204201D1F8
:10E90000022100E00321019800F0CEF8FEBD00F0E6
:10E910004DF90028FAD00198FEF796FF05468100D0
:10E92000C81D0E4AF93089180A6980B222430A616B
:10E930000B49401800210160002FE7D00198FEF735
:10E9400083FF800030580028E0D00648AC40446087
:10E95000FEBD00001C2E0020000500500065004098
:10E960000060004000630040FEB5044623480E46A8
:10E970000019202141560027C8171346401C01D01A
:10E98000082738E0F27819462046FEF739FF054699
:10E99000401C2FD0B078002807D01948A1000918D2
:10E9A000086802229043086007E00021737820463F
:10E9B00000910A46019100F065F8F078002810D027
:10E9C0001048AA001018317802690F4B1A400261F2
:10E9D000E206D20C8907890B0A4301690A430261E6
:10E9E00009E00648327840192030017F9201114336
:10E9F000017700E004273846FEBD00001C2E0020F1
:10EA00000007005000650040FFE0FCFF0349096972
:10EA1000C140C807C00F00D001207047000500505A
:10EA200070B5124D2879002801D0082070BD0F491B
:10EA300000204039421E0B182033401CC0B21A700F
:10EA40002028F8D300242046FEF7CCFE641CE4B254
:10EA5000082CF8D303210620FFF706FF0120044904
:10EA6000C007486001202871002070BD5C2E002086
:10EA70000063004002480079002800D00120704760
:10EA80005C2E002030B552000A439900039C0A43D3
:10EA90002102049D0A4329040A43024980004018C8
:10EAA000026030BD0007005082000648101802685E
:10EAB00003231B049A430260026809040A430260AC
:10EAC0007047000000070050034940180068012803
:10EAD00000D000207047000000600040405800282F
:10EAE00000D00120704703221202801840680840BD
:10EAF00000D00120704710B500280AD0032807D1A4
:10EB00000220FEF7F1FC16E000221146FEF780F924
:10EB100010BD0020FEF7E8FC002803D000221146BB
:10EB2000FEF776F9FEF761FC002803D000221146BB
:10EB3000FEF76EF93CDF0028E6D110BD0021425CF3
:10EB4000002A01D001207047491C0629F7D3002074
:10EB50007047000070B505461C200D4968434418F5
:10EB6000204611300621FDF742FB20461021FDF71B
:10EB70003EFBFF2121740020A176C043208328465C
:10EB800000F0A8FE024A0020A9001C3A505070BDB7
:10EB9000E82C00200449081820214156042901DBF3
:10EBA00001207047002070471C2E002004490818DF
:10EBB00020214156042901D20120704700207047CE
:10EBC0001C2E002007490979490701D40820704705
:10EBD000002804D0044949780160002070470E20C5
:10EBE00070470000582800207C2E002030B5124BC2
:10EBF0001B795B0701D4082030BD002805D0002A0E
:10EC000003D00468002C10D101E00E2030BD0B4B66
:10EC10001D68002D09D045681889414369185D8930
:10EC2000454358682818884201D8072030BD146031
:10EC30000020516030BD000058280020482F0020DF
:10EC4000FEB5054625480E460079400701D4082048
:10EC5000FEBD002D03D02868002834D101E00E202D
:10EC6000FEBD1F4C216800292DD0608921894843B1
:10EC7000616841186868814225D9FFF7EDFB0028DB
:10EC80000FD06868019029680C2251430F197968E8
:10EC90000091401A39890C46FDF758FA002912D123
:10ECA00001E01020FEBD21463046FDF74FFA002955
:10ECB00009D1002E07D07889444301988119009822
:10ECC0000019814201D90720FEBD002002460090B4
:10ECD000334629460320FEF77FFEFEBD582800205C
:10ECE000482F002010B507484469601C06D000F08A
:10ECF0000BF801462046FDF729FA10BD0120000758
:10ED0000406910BD0010001001200007006980B2AA
:10ED10007047000070B500240F4825460470447009
:10ED20002846FEF749FE6D1C0A2DF9D30B4D6C8069
:10ED3000FFF7D8FF861EFFF7E7FF46430648AE60A1
:10ED4000CC306C610460048144812C70AC6104207F
:10ED5000EC616860002070BD7C2E002058280020E7
:10ED6000FFB5274881B000791F4616460D4640077B
:10ED700002D4082005B0F0BD002D06D0019800286F
:10ED800003D02868002815D101E00E20F2E71D4CC1
:10ED9000206800280ED06189208962684143891863
:10EDA0006A68914206D9002E04D0B04202D3F1190C
:10EDB000814201D90720DDE70198FFF74DFB0028CC
:10EDC0001BD03846FFF748FB002816D06868FFF7CD
:10EDD00043FB002811D068683246C1190198FDF73D
:10EDE000DFF9009628680C214843245800220221AC
:10EDF0002846019BA0470020BCE71020BAE700008E
:10EE000058280020482F0020F8B52C4D04462879BA
:10EE10000E46400701D40820F8BD002C20D0002E5B
:10EE20001ED0206800281BD0FFF76EFF0146A08887
:10EE3000814213D3102811D3E08800280ED0FFF7A9
:10EE400051FF471EFFF760FF4743E288A188A8688B
:10EE50004A431218974201D3890703D00720F8BD0F
:10EE60000E20F8BD6988012926D031600C22144B90
:10EE700051437060CA18506020685850A0881081B3
:10EE8000E0885081FFF740FF0646FFF73DFFA1886D
:10EE9000E288401E514340183146FDF76DF90446A3
:10EEA000FFF732FF0146A86861430818A860688828
:10EEB000401C68800020F8BD0420F8BD58280020C0
:10EEC000482F0020F8B5044620481E460079154614
:10EED0000F46400701D40820F8BD002F05D0002CB4
:10EEE00003D02068002815D101E00E20F8BD184895
:10EEF000016800290ED04289018940684A431018F0
:10EF00006268904206D9002D04D0A94202D3A81904
:10EF1000884201D90720F8BD3846FFF79DFA00283E
:10EF200011D03046FFF798FA00280CD06068FFF740
:10EF300093FA002807D02B463A4621460120009636
:10EF4000FEF74AFDF8BD1020F8BD0000582800204B
:10EF5000482F0020F8B5044620481E460079154683
:10EF60000F46400701D40820F8BD002F05D0002C23
:10EF700003D02068002815D101E00E20F8BD184804
:10EF8000016800290ED04289018940684A4310185F
:10EF90006268904206D9002D04D0A94202D3A81974
:10EFA000884201D90720F8BD3846FFF755FA0028F6
:10EFB00011D03046FFF750FA00280CD06068FFF7F8
:10EFC0004BFA002807D02B463A46214604200096EB
:10EFD000FEF702FDF8BD1020F8BD00005828002003
:10EFE000482F0020FEB50125254FAE05BE6000F07C
:10EFF000C5FB68460570812141700024847001239F
:10F0000003226946902000F0CFFB6846047104702B
:10F0100044708470012303226946902000F0C4FBF1
:10F020000123022201A9912000F0BEFB002818D084
:10F0300014A10020FDF70CFA6846027915A1002002
:10F04000FDF712FA6846427914A10020FDF70CFA88
:10F0500014A10020FDF7FCF9052201A91248FDF7D3
:10F060009FF8684605704570847001230322694645
:10F07000902000F099FB0D480460FE600120FEBD69
:10F08000000500504E65772072656164696E673ACD
:10F090002000000025303258200000002530325872
:10F0A000000000000A000000012800200045004088
:10F0B00070B501240B49600408600B49401088605A
:10F0C000094940398860094D6C602F20FDF702F82E
:10F0D000AC60074D00242F202C61FCF7FBFFEC7087
:10F0E00070BD000080E100E04013014000100140CD
:10F0F00090280020FF21074809310022425006488D
:10F1000081690648037DC268D154017D491C01759F
:10F11000704700000020004000250040642E0020C1
:10F120001FB5012269460A7008720448C16801913E
:10F130000021C17406C8684690471FBD642E002098
:10F1400010B5FFF74FFF044674DF002803D00022FC
:10F150001146FDF75DFE002C12D000210948FDF795
:10F1600057FF002803D000221146FDF751FE03206F
:10F17000FEF71CF8002803D000221146FDF748FED8
:10F1800010BD0000242B0020FFB50746806A81B027
:10F19000144600283DD0002538462030009033E04A
:10F1A0000C20B96A68430E18B088801CFE2802D96A
:10F1B0000C2005B0F0BD22880299401C885420889C
:10F1C0001622401C80B2208002990A542088401CDC
:10F1D00080B2208002994118308800F075FB2188A8
:10F1E000401880B22080B288002A0AD0B168002975
:10F1F0000FD0029BC018FCF7D3FF2088B1884018BD
:10F2000020806D1C0098EDB2007BA842C8D8002079
:10F21000CFE70720CDE7000010B50F4900280870A0
:10F2200009D0012811D0022812D0032802D1486940
:10F23000FEF712FF10BD00208861C86107484078C2
:10F240000028F7D0FEF79CFB10BD00F0C3F810BDFE
:10F2500000F024F810BD0000582800207C2E00206B
:10F2600010B508461146C046C04610BD70B500290D
:10F2700001D08C0701D0072070BD064C0125A1608C
:10F2800062800549636010DF0028F5D125701620E3
:10F290002EDF70BDB028002061F20100F8B5164CD9
:10F2A00014226068400840006060144801785143AF
:10F2B0000E183769FFF728FD01463846FCF746FF70
:10F2C00005466061FFF720FD0146F0887F1EC019EA
:10F2D000FCF73CFF02228542606801D1104300E048
:10F2E00090436060E1681040084303D0002000F0C4
:10F2F000B9F8F8BD0220FAE7582800207C2E00203B
:10F3000010B502484069FEF7A7FE10BD582800203E
:10F3100010B5FFF7E7FC441EFFF7F6FC4443FFF788
:10F32000F3FC04494A69521E5043CA682146FEF75D
:10F3300098FE10BD58280020F8B510481422017816
:10F3400051430C182569FFF7DFFC0146E08822894C
:10F3500080184019FCF7FAFE0F46FFF7C3FC461E63
:10F36000FFF7D2FC4643E0882289F1198018044A4D
:10F3700040191269FEF775FEF8BD00007C2E0020D2
:10F380005828002070B5FFF7BFFC0546FFF7AAFC20
:10F39000441EFFF7B9FC60432946FCF7D7FEFEF791
:10F3A0005BFE70BD70B5FFF7AFFC8608FFF7ACFCE5
:10F3B0000749496948430446FFF794FC451EFFF797
:10F3C000A3FC684332462146FEF74BFE70BD0000A9
:10F3D0005828002070B514481422017851430C18A5
:10F3E000241DFFF791FC6188104E884211D2FFF76F
:10F3F0008BFC61880D1AFFF787FC8208A188E06802
:10F400004018216940194919FEF72BFEFFF77CFCD3
:10F4100007E0A288E06880188A082169FEF721FECB
:10F420006088F06170BD00007C2E0020582800200C
:10F4300010B505480079000703D4012000F012F848
:10F4400010BD00F003F810BD5828002010B5044886
:10F450000822416891434160407800F003F810BDF4
:10F460005828002002494870024980000858004787
:10F470005828002070FB010010B5054800790007EE
:10F4800002D4FEF76BFA10BDFFF7E0FF10BD0000DD
:10F4900058280020FEB51F4C00252769E06802901F
:10F4A0006846FEF7A9FD0190FFF712F8064601989D
:10F4B000002822D000230098E16817E00E680A4671
:10F4C000864202D9301A086012E0801BF318002629
:10F4D0001660D668D169B446002E07D0FE183602F1
:10F4E000360A566066469660D56115460029E5D114
:10F4F0002846E160FFF74AF806E02846FFF746F89D
:10F50000002801D1002E02D00298FEF7A9FA0020AF
:10F510002071FEBD902800200120024900050860EE
:10F520007047000000E200E010B50E4BD9680029DA
:10F5300006D002680C68A24204D8A21A0A60C1610F
:10F54000D86010BD0B4604E00B46C969121B0029A8
:10F5500004D00C689442F7D3A41A0C600260C16115
:10F56000D86110BD90280020F8B51E4DEC68002C25
:10F5700036D01D48002740682969401A0602360A1D
:10F580002068B0421AD8361AC7192246107CE4699E
:10F59000002811D0002010746B69002B09D09169EC
:10F5A00050699847002807D000221146FDF730FC2B
:10F5B00002E0516990698847002CE1D16978A87808
:10F5C000814206D1401CC0B2A870022801D100209F
:10F5D000A87004490006800D18310F50FFF79CFFFA
:10F5E000F8BD0000902800200015014010B5002350
:10F5F000124A05211846FDF75BFC002803D00022C3
:10F600001146FDF705FC0F490D4848600E4A0121DF
:10F610000E48FDF737FC002803D000221146FDF705
:10F62000F7FB0A480A4A0021001DFDF72BFC0028C1
:10F6300003D000221146FDF7EBFB10BD502900203E
:10F64000CD0C00000028002041F10100F8FA010073
:10F6500041FA0100F8B5134C8020A0604026A66056
:10F660000420FCF747FD2069000602D5206940060A
:10F670000FD42069400611D500251127E66004202B
:10F68000FCF738FDA6600420FCF734FD2069000675
:10F6900001D5012503E07F1EF0D200E000252846B9
:10F6A000F8BD000000050050F1B50126174C80257B
:10F6B000A5612F464020E0600420FCF71BFD009868
:10F6C000384201D0A56000E0E56000F0C7F80028EE
:10F6D00019D07F08EED14027E7600420FCF70AFD2F
:10F6E000E5610420FCF706FD00F0B8F82169304020
:10F6F0000906CE17761C0640E7600420FCF7FAFCEA
:10F70000A5613046F8BD0026E5E700000005005081
:10F71000F3B500260127184C81B08020E061054632
:10F7200000F09CF8002814D02069C009C00700D060
:10F730002E434020E0600420FCF7DCFC6D08EFD194
:10F740008020A06101990E700299002903D0E06029
:10F7500002E00027F4E7A0600420FCF7CBFC00F0F7
:10F760007DF8002800D100274020E0600420FCF74D
:10F77000C1FC3846FEBD00000005005010B5084928
:10F780000648C86188610748402181608161802105
:10F7900081608161FFF75EFF10BD00000C06000074
:10F7A0000007005000050050FFB52B4F81B08020AE
:10F7B00015460E46B8600420FCF79CFC00F04EF89D
:10F7C000002812D08020F8600420FCF793FC402031
:10F7D000F8600420FCF78EFC01240198FFF764FF19
:10F7E00004400198C0070AD118E00024F5E7002D75
:10F7F0000DD001213046FFF78BFF0440761C2846D0
:10F800006D1EEDB2002810D0002CF0D10DE00021CB
:10F81000F0E73078FFF748FF0440761C28466D1E5D
:10F82000EDB2002801D0002CF3D104982146814389
:10F830000ED18025FD600420FCF75CFC00F00EF882
:10F84000002804D0BD600420FCF754FC01200440D3
:10F85000204605B0F0BD00000005005010B5064C74
:10F860004020A0600420FCF745FC20698009C00707
:10F87000FBD0012010BD000000050050FF2107480B
:10F880001D31002242500648028A8168895C028A42
:10F89000521C02820348C1617047000000200040F2
:10F8A000642E0020002500401FB500216A4611701B
:10F8B0001072044882680192817406C868469047B5
:10F8C0001FBD0000642E00200870000A487002204E
:10F8D0007047000001218140024842688A4342602B
:10F8E000704700004028002012494868C005C00D3C
:10F8F00019D0103840B2002807DA0207120F083A70
:10F90000920892005118C96904E081080A4A8900E6
:10F91000891809688007C00EC1400806800F0128B9
:10F9200003D0032803D00220704700207047012035
:10F930007047000000ED00E000E400E042788378CA
:10F94000521CD2B2934200D100220378934201D1DB
:10F95000002070470A704168407818225043081808
:10F960007047FFB583B016460C9D0D9C1F460222C2
:10F9700000950194039800F00CF8002807D13B464D
:10F980001022314600950194039800F002F807B068
:10F99000F0BDFFB583B0074600200C9C8646268844
:10F9A00005463AE07868A9004218118868468180C7
:10F9B0005188C1800022694601A865DF002839D13D
:10F9C000684601780598814226D17046002801D00A
:10F9D000002200E002222088891842180D998A42EC
:10F9E00027D8714600290AD1401C80B22080069A8F
:10F9F000049911542088401C2080012086462188CB
:10FA000006980A18694601A865DF002812D16946E0
:10FA100020880978401820806D1C3888A842C1DCF5
:10FA2000704600280AD02088801B401E80B2FF2824
:10FA300002D90C2007B0F0BD069988550020F9E7DF
:10FA400000B51DA30FCB89B003936B4607C31422E7
:10FA50001DA104A8FCF7A4FB04A90020FCF7F8FCF6
:10FA600069460020FCF7F4FCFFF7BCFA002812D02E
:10FA700000211A48FDF7CCFA002803D000221146D5
:10FA8000FDF7C6F90320FDF791FB002803D0002203
:10FA90001146FDF7BDF91248002241686420414338
:10FAA00010480068FDF74CFA002803D000221146E8
:10FAB000FDF7AEF909B000BD5761726D7570206435
:10FAC0006F6E650A0000000053616D706C696E67AF
:10FAD000207374617274696E670A0000242B002021
:10FAE00000280020F8FA01000179002902D1007BEA
:10FAF000002800D001207047C8280020E8280020F6
:10FB00005C2B00207C2B0020A82B00201100000083
:10FB10001200000013000000140000001100030098
:10FB200001D401001200030001D4010013000300FE
:10FB300001D401001400030001D40100FFFFFFFF06
:10FB400063E80100C1E10100DDE001007DE20100A8
:10FB50005FE8010091E10100D9E0010075E20100D8
:10FB60005BE80100E1E00100D5E001006DE2010089
:10FB700085F30100A5F3010001F3010039F3010051
:10FB800011F3010031F4010009DC0100B5DB0100D3
:10FB900079F40100D5E20100542F00200300000099
:10FBA00030313233343536373839414243444546B3
:10FBB000D0FB010000280020C8000000B0CA0100EE
:10FBC00098FC0100C828002038130000C0CA0100BA
:10FBD00000FFFF0000000000000000000000000027
:10FBE0000000000000000000000000000000000015
:10FBF0000000000000000000FFFF00000000000007
:10FC000000000000000000000000000000000000F4
:10FC100000000000000000000000000000000000E4
:10FC200000000000000000000000000000000000D4
:10FC300000000000000000000000000000000000C4
:10FC400000000000000000000000000000000000B4
:10FC500000000000000000000000000000000000A4
:10FC60000000000000000000000000000000000094
:10FC70000000000000000000000000000000000084
:10FC80000000000000000000000000000000000074
:08FC9000000000000024F40054
:040000050001C0C175
:00000001FF
